:020000040800F2
:10000000005000208D220008052200080922000867
:100010000D2200081122000815220008000000002F
:10002000000000000000000000000000C172000895
:1000300019220008000000005173000895730008A1
:10004000D5220008D5220008D5220008D5220008B4
:10005000D5220008D5220008D5220008D5220008A4
:10006000D5220008D5220008D52200081D2200084C
:100070002922000835220008412200084D220008EC
:10008000D5220008D5220008D5220008D522000874
:10009000D5220008D5220008D5220008D522000864
:1000A000D522000859220008D5220008D5220008D0
:1000B000D5220008D5220008D5220008D522000844
:1000C000D5220008D5220008D5220008D522000834
:1000D000D522000865220008D5220008D522000894
:1000E00071220008D5220008D52200080000000077
:1000F0000000000000000000000000000000000000
:0C01000000000000000000005FF808F1A3
:1001100010B5054C237833B9044B13B10448AFF341
:1001200000800123237010BD380000200000000073
:10013000D87B000808B5034B1BB103490348AFF354
:10014000008008BD000000003C000020D87B0008B3
:100150004FF0FF0C1CEAD0521EBF1CEAD15392EAAA
:100160000C0F93EA0C0F6FD01A4480EA010C400286
:1001700018BF5FEA41211ED04FF0006343EA5010E0
:1001800043EA5111A0FB01310CF00040B1F5000F22
:100190003EBF490041EAD3715B0040EA010062F1D1
:1001A0007F02FD2A1DD8B3F1004F40EBC25008BFBB
:1001B00020F00100704790F0000F0CF0004C08BFD9
:1001C00049024CEA502040EA51207F3AC2BFD2F1A6
:1001D000FF0340EAC250704740F400004FF00003B4
:1001E000013A5DDC12F1190FDCBF00F000407047EE
:1001F000C2F10002410021FA02F1C2F1200200FA2C
:1002000002FC5FEA310040F1000053EA4C0308BFF2
:1002100020EADC70704792F0000F00F0004C02BF43
:10022000400010F4000F013AF9D040EA0C0093F0BE
:10023000000F01F0004C02BF490011F4000F013B18
:10024000F9D041EA0C018FE70CEAD15392EA0C0F86
:1002500018BF93EA0C0F0AD030F0004C18BF31F0F1
:10026000004CD8D180EA010000F00040704790F0C7
:10027000000F17BF90F0004F084691F0000F91F06B
:10028000004F14D092EA0C0F01D142020FD193EA31
:100290000C0F03D14B0218BF084608D180EA0100B9
:1002A00000F0004040F0FE4040F40000704740F095
:1002B000FE4040F44000704780F0004002E000BF84
:1002C00081F0004142001FBF5FEA410392EA030F41
:1002D0007FEA226C7FEA236C6AD04FEA1262D2EB8B
:1002E0001363C1BFD218414048404140B8BF5B4290
:1002F000192B88BF704710F0004F40F4000020F029
:100300007F4018BF404211F0004F41F4000121F03E
:100310007F4118BF494292EA030F3FD0A2F1010288
:1003200041FA03FC10EB0C00C3F1200301FA03F1C6
:1003300000F0004302D5494260EB4000B0F5000FE9
:1003400013D3B0F1807F06D340084FEA310102F1A8
:100350000102FE2A51D2B1F1004F40EBC25008BF5A
:1003600020F0010040EA03007047490040EB000024
:10037000013A28BFB0F5000FEDD2B0FA80FCACF125
:10038000080CB2EB0C0200FA0CF0AABF00EBC25052
:1003900052421843BCBFD0401843704792F0000F40
:1003A00081F4000106BF80F400000132013BB5E793
:1003B0004FEA41037FEA226C18BF7FEA236C21D009
:1003C00092EA030F04D092F0000F08BF084670476E
:1003D00090EA010F1CBF0020704712F07F4F04D13C
:1003E000400028BF40F00040704712F100723CBF4F
:1003F00000F50000704700F0004343F0FE4040F479
:10040000000070477FEA226216BF08467FEA236336
:100410000146420206BF5FEA412390EA010F40F421
:10042000800070474FF0000304E000BF10F000436D
:1004300048BF40425FEA000C08BF704743F0964354
:1004400001464FF000001CE050EA010208BF70476F
:100450004FF000030AE000BF50EA010208BF7047F6
:1004600011F0004302D5404261EB41015FEA010C0B
:1004700002BF84460146002043F0B64308BFA3F103
:100480008053A3F50003BCFA8CF2083AA3EBC253E5
:1004900010DB01FA02FC634400FA02FCC2F1200204
:1004A000BCF1004F20FA02F243EB020008BF20F03B
:1004B0000100704702F1200201FA02FCC2F12002A1
:1004C00050EA4C0021FA02F243EB020008BF20EA96
:1004D000DC7070474FF0FF3C06E000BF4FF0010CAE
:1004E00002E000BF4FF0010C4DF804CD4FEA40028E
:1004F0004FEA41037FEA226C18BF7FEA236C11D0D8
:1005000001B052EA530C18BF90EA010F58BFB2EB8A
:10051000030088BFC81738BF6FEAE17018BF40F00A
:10052000010070477FEA226C02D15FEA402C05D1BE
:100530007FEA236CE4D15FEA412CE1D05DF8040B43
:10054000704700BF844608466146FFE70FB5FFF7D6
:10055000C9FF002848BF10F1000F0FBD4DF808ED8E
:10056000FFF7F4FF0CBF012000205DF808FB00BF7F
:100570004DF808EDFFF7EAFF34BF012000205DF8D9
:1005800008FB00BF4DF808EDFFF7E0FF94BF012026
:1005900000205DF808FB00BF4DF808EDFFF7D2FF23
:1005A00094BF012000205DF808FB00BF4DF808ED66
:1005B000FFF7C8FF34BF012000205DF808FB00BF33
:1005C000BFF34F8F0549064BCA6802F4E06213433C
:1005D000CB60BFF34F8F00BFFDE700BF00ED00E031
:1005E0000400FA050122014B1A807047D444002010
:1005F0002DE9F84F4FF45C7006F0A0FF2A4E3060F2
:1006000000284ED0294802F0DDF8294802F0DAF837
:100610000023284C284DDFF8A4A0DFF8A490DFF8D1
:100620008C80234F23804FF0FF33032280212868E2
:1006300004F0A6FA002264234821286804F0A0FAF6
:10064000208807F01FF92388316803EB830301EB4F
:10065000830B404602F02AF859460522384602F03C
:1006600029F901224FF0FF331146286804F088FA77
:1006700023882A2BA3F12B020CD910212868228071
:1006800004F0F2F901F046FEDAF80030C01AC9F8B9
:100690000000C8E7013308212868238004F0E4F94A
:1006A000C1E772B6FEE700BF24420020EC41002003
:1006B000D84200202C42002074440020D442002064
:1006C000E8410020234B2DE9F0419846224A234C73
:1006D000234F244E244D82B09A6201224FF0FF3303
:1006E0001021206804F04CFA4FF45C7006F026FFED
:1006F0000246019058B34FF4DC733968404602F06B
:100700001BFA4FF0FF3301220221206804F038FA6F
:10071000019A2323B2F8AC00B2F8D210A2F8AA00D2
:10072000A2F8BE103068002201A904F0ADFA831CC3
:1007300009D00028D1D14021206804F095F901F0BA
:10074000E9FD2860C9E7019806F0B2FFC5E772B677
:10075000FEE700BF244400202D140008744400204C
:100760002442002070440020D44200202DE9F04FA4
:100770004FF45D7083B006F0E1FE002843D0234BB8
:10078000064645F255524AF6AA209B462049214D7D
:10079000DFF888A0DFF88890DFF888803080A6F83E
:1007A00072239962B71C4FF0FF330022286801A919
:1007B00004F0ACFA04460028F5D101F0ABFD844604
:1007C0004FF4DC733A4601995846CAF800C002F06B
:1007D000B3F94FF0FF3301222021D9F8000004F0D3
:1007E000CFF922463223D8F8000001A904F04CFAD0
:1007F00010B1019806F05CFF4FF45D723146064877
:1008000003F046FCCFE772B6FEE700BF5C41002074
:100810002D1400087044002060430020284200206E
:10082000744400207C44002000B51C2083B006F0F6
:1008300085FE0C4C206090B102220B4B00921B688D
:1008400000220A4907F074F8292242232068C27066
:10085000838007F099F8206807F0CAF8FBE772B6C2
:10086000FEE700BF00450020F8440020844400203B
:1008700000B51C2083B006F061FE0C4C206090B1E6
:1008800004220B4B00921B680A4907F051F81C2206
:100890004FF4AA732068C270838007F075F820684F
:1008A00007F0A6F8FBE772B6FEE700BF1844002089
:1008B000F84400208444002000B51C2083B006F0DA
:1008C0003DFE0C4C206090B108220B4B00921B683F
:1008D00000220A4907F02CF82D224E232068C2700E
:1008E000838007F051F8206807F082F8FBE772B6C2
:1008F000FEE700BFFC440020F844002038420020FE
:1009000000B51C2083B006F019FE0C4C206090B19D
:1009100010220B4B00921B6804220A4907F008F8CA
:10092000222259232068C270838007F02DF82068A6
:1009300007F05EF8FBE772B6FEE700BF3841002023
:10094000F84400203842002000B51C2083B006F097
:10095000F5FD0C4C206098B120220B4B00921B68D7
:1009600000220A4906F0E4FF302240F24B132068CF
:10097000C270838007F008F8206807F039F8FBE7B9
:1009800072B6FEE708440020F8440020A041002091
:1009900000B51C2083B006F0D1FD0C4C206098B14E
:1009A00040220B4B00921B6804220A4906F0C0FF4C
:1009B0002D224FF4B6732068C270838006F0E4FFE6
:1009C000206807F015F8FBE772B6FEE750410020FB
:1009D000F8440020A04100202DE9F84F152006F032
:1009E000ADFD494E3060002800F08C80152006F0E7
:1009F000A5FD0446002853D015223168434803F072
:100A000081FB434DDFF81C81DFF81CB1DFF81CA12E
:100A1000DFF81C913F4F01224FF0FF331146286849
:100A200004F0AEF833681A68D968D3F804C098683F
:100A30002260E160C4F804C0A0601A6921782261D4
:100A40001B7DAA2923752DD05529E4D1237DAA2BFE
:100A5000E1D101222146DBF8000007F071F80722FE
:100A60002146DAF8000007F06BF80D222146D9F88C
:100A7000000007F065F8284B04221868214607F0AB
:100A80005FF8264B0A221868214607F059F8244BD4
:100A900010222146186807F053F8E37C3B70BAE750
:100AA00072B6FEE7DBB2552BB5D100232868C8F833
:100AB000003004F04BF80306EFD42146DBF80000C9
:100AC000012207F003F82146DAF80000072206F0B9
:100AD000FDFF2146D9F800000D2206F0F7FF104B6C
:100AE00021461868102206F0F1FF0C4B21461868C9
:100AF0000A2206F0EBFF084B04222146186806F094
:100B0000E5FFCAE772B6FEE73C41002060430020E3
:100B1000F8440020304100201844002038410020D3
:100B2000504100205400002000450020FC440020DB
:100B300008440020F0B52C220A214FF4DC7083B069
:100B400006F00CFE1C4D2860A0B31C4C1C4E4FF050
:100B5000FF330022206801A904F0D8F80028F6D15C
:100B60002B6801981B68C21CD21A062A10D90246AB
:100B700000F55C7752F8041BBA4243F8041BF9D124
:100B800006F096FD4FF48071306803F06DFFDEE7EC
:100B9000023B821E00F26E3732F8021FBA4223F87F
:100BA000021FF9D106F084FD4FF48071306803F024
:100BB0005BFFCCE772B6FEE7684400207C4400206F
:100BC000F84400202DE988480027394D394CDFF8DA
:100BD000F4B0394EDFF8F0A0DFF8F090DFF8F080E5
:100BE0004FF0FF337E210222286803F0C9FF2868F6
:100BF00003F0ACFF2060236899074DD423685A079F
:100C00003ED423681B072FD42368D80620D423683A
:100C100099060ED423685B06E2D54021286803F0CC
:100C200065FF264B40211B689F70306803F05EFF14
:100C3000D6E72021286803F059FF214B10211B68BB
:100C40009F70306803F052FF23685A06C8D5E4E766
:100C50001021286803F04AFFD8F8003004219F7063
:100C6000306803F043FFD2E70821286803F03EFF15
:100C7000D9F8003020219F70306803F037FFC3E7B8
:100C80000421286803F032FFDAF8003008219F7051
:100C9000306803F02BFFB4E70221286803F026FF39
:100CA000DBF8003002219F70306803F01FFFA5E7DA
:100CB000EC44002058000020F8440020504100205F
:100CC0003841002000450020FC440020084400205A
:100CD000184400202DE9804818220521782085B08D
:100CE00006F03CFDB34C2060002800F0268218225C
:100CF0000521782006F032FDAF4D2860002800F075
:100D00001A8208220521282006F028FDAB4B186026
:100D1000002800F0148208220521282006F01EFD7C
:100D2000DFF8E492C9F80000002800F00A820822E7
:100D30000521282006F012FDA14B1860002800F0C4
:100D4000028208220521282006F008FDDFF8BCB247
:100D5000CBF80000002800F08A8208220521282014
:100D600006F0FCFC974B1860002800F090820822E7
:100D70000521282006F0F2FCDFF894A2CAF8000052
:100D8000002800F0828200268F4B01224FF4005190
:100D90008E481E6002F01EF98D4B8021186803F00A
:100DA000A5FE8C4FDFF86C828B4E89484FF0FF33E5
:100DB00003228021006803F0E3FE85484FF0FF33F3
:100DC00001224FF48071006803F0DAFE83480023AB
:100DD00005222168006806F0D7FC00237F481A46E8
:100DE0002968006806F0D0FC0023744A2068116866
:100DF0001A4606F0C9FC08230022D9F80010206822
:100E000006F0C2FC6E49102300220968206806F033
:100E1000BBFC0023DBF800101A46286806F0B4FC7F
:100E20006848082301680022286806F0ADFCDAF85B
:100E3000001010230022286806F0A6FC5F4A106804
:100E400006F00CFD0346D9F800003B8006F006FDD5
:100E500003465B49624A0868138006F0FFFC0346BC
:100E60006049DBF800000B8006F0F8FC03465548AB
:100E7000A8F80030006806F0F1FC03465A49DAF899
:100E800000000B8006F0EAFC584B59491880594B7A
:100E90001B7831F813305B009BB23380564B1B78C4
:100EA000002B44D14E4A3B8811889BB2328889B2CC
:100EB0000B44643392B2934240F2478138883288BF
:100EC00080B292B20192FFF7B1FA0346019A019300
:100ED0001046FFF7ABFA4949FFF73AF9019B014683
:100EE0001846FFF763FB002800F02F813C4A10886A
:100EF000328880B292B20192FFF798FA0346019AC3
:100F000001931046FFF792FA3C49FFF721F9019B44
:100F100001461846FFF74AFB002800F0168101231E
:100F2000374A06211068344A137003F09DFD354B93
:100F30001B78002B78D12B4A3B8811889BB23288D2
:100F400089B20B44643392B2934240F23E813888B6
:100F5000328880B292B20192FFF768FA0346019A92
:100F600001931046FFF762FA2449FFF7F1F8019B5D
:100F700001461846FFF71AFB002800F02681194A9F
:100F80001088328880B292B20192FFF74FFA03467E
:100F9000019A01931046FFF749FA1849FFF7D8F86C
:100FA000019B01461846FFF701FB002800F00D8168
:100FB00032E000BF204200201044002054410020B5
:100FC0003441002030420020540000200010014035
:100FD000F84400200C430020D8440020684400203E
:100FE000FE43002058410020D0440020E844002067
:100FF00000000020304100206C4400209A99993E66
:10100000EC44002048410020044400208C42002091
:10101000E04400200044002001239E4A0A21106879
:101020009D4A137003F020FD9C4B1B78002B7FF42E
:10103000BCAE9B4B1B78012B7FF4B7AE964B1B7855
:10104000012BDAB27FF4B1AE944B1A70954B964AED
:101050001B7832F81330ADF80E303A88BDF80E30F8
:1010600092B29BB29A4200F2F680B8F80020BDF826
:101070000E3092B29BB29A4200F2ED803A88BDF8EF
:101080000E3092B29BB29A4208D2B8F80020BDF856
:101090000E3092B29BB29A42C0F0EB80834B1A881A
:1010A000BDF80E3092B29BB29A4200F2CE80804BD5
:1010B0001A88BDF80E3092B29BB29A4200F2C580F7
:1010C0007A4B1A88BDF80E3092B29BB29A4208D27F
:1010D000774B1A88BDF80E3092B29BB29A42C0F09C
:1010E000CE80744B1A88BDF80E3092B29BB29A42F1
:1010F00000F2B780704B1A88BDF80E3092B29BB2E6
:101100009A4200F2AE806B4B1A88BDF80E3092B254
:101110009BB29A42BFF449AE674B1A88BDF80E30B5
:1011200092B29BB29A42BFF440AE644B022118685F
:1011300006F03AFC39E672B6FEE772B6FEE772B622
:10114000FEE772B6FEE772B6FEE7594AB8F800301D
:1011500011889BB2328889B20B44643392B29342B5
:101160007FF6E5AEB8F80000328880B292B2019204
:10117000FFF75CF90346019A01931046FFF756F911
:101180004F49FEF7E5FF019B01461846FFF70EFAAF
:1011900000283FF4CCAE464A1088328880B292B222
:1011A0000192FFF743F90346019A01931046FFF7B6
:1011B0003DF94349FEF7CCFF019B01461846FFF776
:1011C000F5F900283FF4B3AEA9E63B4AB8F8003081
:1011D00011889BB2328889B20B44643392B2934235
:1011E0007FF622AFB8F80000328880B292B2019246
:1011F000FFF71CF90346019A01931046FFF716F911
:101200002F49FEF7A5FF019B01461846FFF7CEF9CF
:1012100000283FF409AF284A1088328880B292B281
:101220000192FFF703F90346019A01931046FFF775
:10123000FDF82349FEF78CFF019B01461846FFF796
:10124000B5F900283FF4F0AEE6E61E4B0121186820
:1012500006F0AAFB45E71C4B0121186806F0A4FB29
:101260001CE7164B0121186806F09EFB9DE572B63F
:10127000FEE7154B0221186806F096FB0EE7114BAE
:101280000221186806F090FB2BE772B6FEE772B6F3
:10129000FEE700BFEC44002048410020344200201B
:1012A0006C4400203041002000000020FE4300205C
:1012B000D044002058410020E84400200844002089
:1012C0009A99993EFC440020004500204FF0000808
:1012D0002DE98848454D464EDFF84891454C464F2C
:1012E000DFF844A101214FF0FF32084603F076FAFF
:1012F0002B889BB2B3F5804F13D0B3F5004F04D1C8
:10130000306803F023FC03061AD423889BB2002B19
:10131000E8D04FF47A713868A4F8008003F05AFBE3
:10132000E0E7306803F012FC10F0800F4FF080010E
:10133000306802D003F0DAFBE7E703F095FBE4E75F
:10134000D9F8000003F002FC10F0800B4FF0800190
:10135000D9F8000026D003F0C9FB012250464FF413
:10136000005101F037FE254B0321186806F01CFBE5
:10137000234B0321186806F017FB224B0321186842
:1013800006F012FB204B0321186806F00DFB1F4BE3
:101390000321186806F008FB1D4B0321186806F0AE
:1013A00003FBB2E703F060FB5A4650464FF400518E
:1013B00001F010FE114B04211868164B83F800B0A1
:1013C000154B83F800B0154B83F800B0144BC3F8ED
:1013D00000B006F0E9FA0A4B0421186806F0E4FAB6
:1013E000084B0421186806F0DFFA8EE7F444002069
:1013F000744400200C4400202044002000450020BC
:10140000FC440020084400201844002038410020FB
:10141000504100206C44002048410020344200200C
:1014200054000020F844002000100140094A0368DD
:101430001268934204D0084A1268934205D070475C
:10144000064B0221186803F00FBB044B20211868DB
:1014500003F00ABB244400205C41002074440020B7
:1014600001202DE9D043002301264FF480370224C8
:101470004FF480314FF4E01294B00E900AA8CDE9F9
:101480000F33CDE90533CDE90733CDE90133CDE99C
:101490000A67CDE911410D93049300930C930393D4
:1014A000139201F0A7FD08B172B6FEE703464FF0B4
:1014B0000F084FF0020900264FF48067214604A868
:1014C000CDE90489CDE90667089301F093FF08B1DF
:1014D00072B6FEE74FF4004368460094029302F0B0
:1014E00097F808B172B6FEE714B0BDE8D08300BF2C
:1014F0002DE9804895B000F0EFFE4FF0000A01237F
:10150000C820A74AA749A84CA84FA94EA94D1380A7
:101510000880A4F800A0A6F800A03B80A5F800A0D1
:10152000FFF79EFFCDE90CAACDE90EAAA24C4FF41D
:101530000058A3694FF0010943F01003A361A369A8
:10154000524603F010030293029BA3694FF400512B
:1015500043F02003A361A369984803F02003039399
:10156000039BA369002643F00403A361A369022738
:1015700003F004030493049BA3694FF4804B43F0EE
:101580000803A361A3694FF4807503F00803059372
:10159000059B01F01FFD52464FF20401884801F0FF
:1015A00019FD52464FF48071864801F013FDCDE9D4
:1015B0000C894FF44048DFF8309280480CA9CDE9FF
:1015C0000E6701F0FBFBCDE90C894FF204084FF0E8
:1015D00001097A480CA9CDF838A001F0EFFB784852
:1015E0000CA9CDE90C89CDE90E6701F0E7FB0123D9
:1015F0004FF4807273480CA9CDE90C23CDE90E6736
:1016000001F0DCFB05215246282001F01DFA2820BC
:1016100001F052FA63696C4843F001036361636946
:101620004FF0800903F001030193684B4FF4806889
:10163000C0E9003B4023C0E906AAC0E90239C0E97D
:101640000458019901F046FA08B172B6FEE74FF46A
:10165000805103465E485F4AC1614021C0E9045899
:10166000C0E90219C0F804B08361026001F032FAE7
:10167000044608B172B6FEE7024605210B2001F0D0
:10168000E3F90B2001F018FA224605210C2001F0A5
:10169000DBF90C2001F010FA224605210D2001F0A3
:1016A000D3F90D2001F008FA224605210E2001F0A1
:1016B000CBF90E2001F000FA224605210F2001F09F
:1016C000C3F90F2001F0F8F94FF460210523424ED1
:1016D000424A3046CDE90C44C6E9002408940E94F1
:1016E000F161B56034733475336100F019FE08B1EF
:1016F00072B6FEE74FF4C023304608A9089301F004
:101700005BF908B172B6FEE7002001210723CDE99D
:101710000C0130460CA90E9300F0F8FE08B172B629
:10172000FEE70222022330460CA9CDE90C2300F08B
:10173000EDFE08B172B6FEE70422032330460CA981
:10174000CDE90C2300F0E2FE08B172B6FEE70622F6
:10175000042330460CA9CDE90C2300F0D7FE08B1D4
:1017600072B6FEE70523082230460CA9CDE90C230A
:1017700000F0CCFE034608B172B6FEE74FF4E13448
:101780000C2217481749C0E90143C0E90333C0E9F7
:1017900006330160426102F011FC38B372B6FEE715
:1017A000D24400205C43002036420020D444002074
:1017B0002C4200200C440020001002400010014088
:1017C000000C014000080140244400201C0002409D
:1017D0005C41002030000240D8420020002401403B
:1017E00060430020003801400000211000234FF02A
:1017F000804240F29F5A40F2E7394FF08008DFF80C
:10180000A8B2CDE908335846CDE90A33CDE90C3307
:10181000CDE90E33CDE91033CBE9002A06931293BC
:101820000793CBF80830CBF81030CBF80C90CBF8FE
:10183000188001F0E5FF08B172B6FEE74FF480555D
:10184000584608A9089502F02DFA08B172B6FEE7CD
:10185000584602F067F808B172B6FEE70026002786
:10186000584606A9CDE9066702F072FB024608B1A8
:1018700072B6FEE7602300240E9010900CA9584623
:10188000CDE90C3402F008F908B172B6FEE7042283
:1018900058460CA902F000F9044608B172B6FEE7FA
:1018A0005846DFF8F0B100F067FB794B5846CDE9B8
:1018B0000844CDE90A44CDE90644CDE90C44CDE91C
:1018C0000E44CDE91044CBE902491294CBF804A0B0
:1018D000CBF81040CBF81880CBF8003001F090FF27
:1018E00008B172B6FEE7584608A9089502F0DAF981
:1018F00008B172B6FEE7584602F014F808B172B6A5
:10190000FEE7584606A9CDE9066702F021FB08B1BB
:1019100072B6FEE70022602600275E480CA9CDE9DA
:101920000C670E92109202F0B7F808B172B6FEE79B
:10193000042258480CA902F0AFF8044608B172B668
:10194000FEE7544800F018FB40F29F5140F2E733A5
:10195000514D524A2846CDE90844CDE90A44CDE923
:101960000644CDE90C44CDE90E44CDE91044C5E967
:10197000011412942C61AC612A60EB6001F040FF0D
:1019800008B172B6FEE74FF48053284608A90893C1
:1019900002F088F908B172B6FEE7284601F0C2FFEE
:1019A00008B172B6FEE700220023284606A9CDE959
:1019B000062302F0CDFA024608B172B6FEE72846C9
:1019C0000CA9CDE90C670E92109202F065F808B1EF
:1019D00072B6FEE7042228460CA902F05DF806461E
:1019E00008B172B6FEE7284600F0C6FA4FF48070E0
:1019F0004FF4602205232A4C2A49A0602046CDE9F5
:101A00000C660E962673267566602160E26123617E
:101A100000F086FC08B172B6FEE701260127072315
:101A200020460CA9CDE90C670E9300F06FFD08B1BC
:101A300072B6FEE70322022319480CA9CDE90C2354
:101A400000F064FD08B172B6FEE7052203231448D6
:101A50000CA9CDE90C2300F059FD08B172B6FEE7E0
:101A6000072204230E480CA9CDE90C2300F04EFDFB
:101A700008B172B6FEE70922052309480CA9CDE991
:101A80000C2300F043FD044680B172B6FEE700BFB0
:101A90000004004038420020A0410020000800401F
:101AA000EC410020002801408444002002F0AEFDFB
:101AB000224621464D4B4E4802F04AFF05464D4B0B
:101AC00004214D4A03201D6003F096F805464B4B58
:101AD00004214B4A03201D6003F08EF80546494B54
:101AE0002146494A49481D6002F0CCFD0546484B55
:101AF0002146484A48481D6002F0C4FD0546474B50
:101B00002146474A47481D6002F0BCFD0546464B4A
:101B10002146464A46481D6002F0B4FD0546454B45
:101B20002146454A45481D6002F0ACFD0546444B40
:101B30002146444A44481D6002F0A4FD0546434B3B
:101B40002146434A43481D6002F09CFD0546424B36
:101B50002146424A42481D6002F094FD0546414B31
:101B60002146414A41481D6002F08CFD0546404B2C
:101B70002146404A40481D6002F084FD05463F4B27
:101B800021463F4A3F481D6002F07CFD05463E4B22
:101B900021463E4A3E481D6002F074FD05463D4B1D
:101BA00021463D4A3D481D6002F06CFD05463C4B18
:101BB00021463C4A3C481D6002F064FD02463B4B16
:101BC0003B481A6002F02EFF02463A4B3A481A6030
:101BD00002F028FF0246394B39481A6002F022FF12
:101BE000384B186002F02CFDFEE700BF3C7F000878
:101BF000E5050008204400206C7F000870440020A8
:101C0000247F00087C440020CC7E0008F1050008F9
:101C1000B0430020A87E0008C506000880420020CE
:101C2000F07E00086D07000858430020407D000842
:101C3000290800081C4200203C7E000871080008AA
:101C4000A4430020647D0008B90800084C4100202E
:101C5000607E00080109000878440020887D0008A3
:101C600049090008CC440020847E0008910900083E
:101C700040410020F47D0008D9090008AC43002051
:101C8000AC7D0008350B000884420020D07D0008A0
:101C9000D50C0008444100201C7D0008CD1200082E
:101CA000F0440020187E0008C50B00081C440020EA
:101CB000147F0008F84400205C7F00087444002072
:101CC0004C7F0008EC440020044B02689A4200D08C
:101CD0007047034B0121186802F0C6BE0024014082
:101CE0007444002008B50268054B9A4200D008BD34
:101CF00000F010FB034A044B1268801A186008BDFC
:101D00000038014028420020DC440020094B0268D2
:101D10009A4200D0704710B50446074B012118685D
:101D200002F0A2FE054B2046BDE8104015221968BE
:101D300002F0E8B900380140F84400203C4100209E
:101D400030B4094C23889BB20BB930BC70470023D8
:101D500002460121054D06482380064B2A80006873
:101D600030BC198002F0F0BCD4440020F4440020C0
:101D7000F04400200C440020034B02689A4200D03B
:101D8000704700F0BBBA00BF002C014072B6FEE7FE
:101D9000114B10B5986982B040F0010098619C69C0
:101DA000002204F001040094009CDC690F2144F03F
:101DB0008054DC61DB696FF0010003F08053019314
:101DC000019B00F041FE054A536823F0E06343F0B5
:101DD0000073536002B010BD0010024000000140CB
:101DE00070B500240368414A8AB09342CDE90644A5
:101DF000CDE9084404D03E4A934246D00AB070BDB3
:101E00000321054655203B4B3B4E9A6942F4007234
:101E10009A619A6902F400720092009A9A6942F0FB
:101E200004029A619A6902F004020192019A9A6985
:101E300042F008029A619B69CDE9060103F00803AC
:101E40002E48029306A9029B00F0B8FF012203234B
:101E50002B4806A9CDE9062300F0B0FF80204FF4FF
:101E600000724FF400632749F0603046C6E9014430
:101E7000C6E90644C6E90423316000F02BFE0028C1
:101E800031D12E6275620AB070BDAA240325194BA8
:101E900006A99A69194842F480629A619A6902F423
:101EA00080620392039A9A6942F004029A619A69E5
:101EB00002F004020492049A9A6942F008029A61BC
:101EC0009B69CDE9064503F008030593059B00F0E7
:101ED00075FF022203230A4806A9CDE9062300F074
:101EE0006DFF0AB070BDFFF751FFCAE70024014043
:101EF0000028014000100240B443002000080140C7
:101F0000000C014008000240036884B0B3F1804F28
:101F100013D0164A934204D0154A93421AD004B003
:101F20007047144BDA6942F00202DA61DB6903F0B0
:101F300002030293029B04B0704703F50433DA698D
:101F400042F00102DA61DB6903F001030193019BB6
:101F500004B07047074BDA6942F00402DA61DB69CA
:101F600003F004030393039B04B070470004004094
:101F700000080040001002400023D0B5026888B07D
:101F8000B2F1804FCDE90433CDE9063307D03B4BA6
:101F90009A423CD03A4B9A4259D008B0D0BD4FF447
:101FA00000400221022403F1804303F504339A69BF
:101FB00042F004029A619A6902F004020092009AC7
:101FC0009A6942F008029A619B69CDE9040103F025
:101FD000080300F18040019304A900F50840019B2B
:101FE000079400F0EBFE08220223264804A9CDE95D
:101FF0000423079400F0E2FE234A536823F440735D
:1020000043F0E06343F48073536008B0D0BD3026E2
:102010000227022403F503339A691A4842F00802A2
:102020009A619B6904A903F008030293029BCDE91E
:102030000467079400F0C2FE134A536823F4406318
:1020400043F0E06343F40063536008B0D0BDC026A2
:102050000227022403F502339A690A4842F0080273
:102060009A619B6904A903F008030393CDE904670F
:10207000039B079400F0A2FE08B0D0BD000400400E
:1020800000080040000C01400000014070B5002431
:102090000268374B86B09A42CDE90244CDE9044448
:1020A00001D006B070BD022105464FF40070032632
:1020B00003F558439A6942F480429A619A6902F49E
:1020C00080420092009A9A6942F004029A619B69E8
:1020D000CDE9020103F0040300F18040019302A95D
:1020E00000F58330019B059600F068FE4FF4806296
:1020F0000023204802A9CDE90223049400F05EFEEB
:10210000102080224FF400531B4E1C49C6E90104E5
:102110003046C6E90444B4613160F260F36100F016
:10212000D9FCF8B9002380214FF44052144C6E635F
:102130007562144E2046C4E90133C4E90433A36137
:102140002660E160E26100F0C5FC70B90022052163
:102150002520AC63656200F077FC252000F0ACFC24
:1021600006B070BDFFF712FEDCE7FFF70FFEEDE7EC
:102170000038014000080140904200204400024025
:10218000104300205800024010B5014688B00022DC
:10219000192000F059FC192000F08EFC154B01A904
:1021A0009A6903A842F400629A619B69124C03F495
:1021B00000630293029B01F00BFA01F0F9F940F27F
:1021C000E73100220D4BE160A3FB00130C499B0C8F
:1021D000013B2046C4E900132261A26001F010FB1C
:1021E00010B1012008B010BD204601F06DFB08B011
:1021F00010BD00BF001002400445002083DE1B43D9
:10220000002C0140FEE700BFFEE700BFFEE700BF75
:10221000FEE700BFFEE700BF704700BF014800F0C7
:1022200039BD00BFB4430020014800F033BD00BFFA
:1022300024440020014800F02DBD00BF5C41002077
:10224000014800F027BD00BF90420020014800F087
:1022500021BD00BF10430020014801F0CFBD00BFE9
:1022600004450020014802F061B800BF604300202F
:1022700008B54FF4804000F0B1FEBDE808404FF4CF
:10228000004000F0ABBE00BF704700BF0C480D49D6
:102290000D4A002302E0D458C4500433C4188C42C1
:1022A000F9D30A4A0A4C002301E013600432A24227
:1022B000FBD3FFF7E9FF05F055FCFFF719F970476D
:1022C0000000002038000020D07F000838000020E7
:1022D00098450020FEE70000074A08B51368032070
:1022E00043F01003136000F09DFB0020FFF74CFF4C
:1022F000FFF74EFD002008BD00200240034A044BBA
:1023000011681B780B441360704700BF4C450020D8
:102310002C000020014B1868704700BF4C4500207E
:10232000002800F08280F8B5836A0446002B65D04F
:1023300023689A68D5073ED4A26AD20658D4A26A06
:10234000E069616822F488520143A068267B22F08C
:10235000020242F00202B0F5807FA26241EA460228
:10236000217D51D001280CBF4FF48077002701292F
:1023700067D05D68434925F469453D435D609D68CC
:1023800029401143996001284BD00020D96A3E4D65
:1023900021F470010143D9629B681D40AA4246D0D6
:1023A0000120A36A23F0120343F01003A362E36A3F
:1023B0000343E362F8BD9A6822F001029A60FFF7D6
:1023C000A9FF054623689A68D007B5D5FFF7A2FF95
:1023D000431B022B2368F6D99A68D107F3D5A36A69
:1023E00043F01003A362E36A43F00103E362A36ACC
:1023F000A36A012043F01003A362F8BDC36280F812
:102400002430FFF7EDFC93E7012919D058681D49E6
:1024100020F4694040F4807058609868014011438E
:102420009960216901390805B0E701207047002053
:10243000E062A36A23F0030343F00103A362F8BD43
:102440000746BEB1A16A41F02001A162E16A41F0F4
:102450000101E1625D680B4925F469453D435D601A
:102460009D68B0F5807F01EA050141EA02019960AB
:1024700089D1D6E7A1694D1E47EA453545F4006785
:10248000E8E700BFFDF7E1FFFE0E1FFF436A9A6A0F
:1024900012F0500F0FD19A6A196842F4007210B509
:1024A0009A628A6802F46022B2F5602F06D018465C
:1024B000FFF70AFC10BD1B6A1B6B18471A7B002A2A
:1024C000F5D19A6A22F480729A629A6AD204EED4A2
:1024D0009A6A42F001029A62E9E700BF704700BFC2
:1024E00008B5406AFFF7FAFF08BD00BF704700BF9C
:1024F000406A08B5836A43F040038362C36A43F0CD
:102500000403C362FFF7F2FF08BD00BF02460020CC
:1025100070B492F8243083B0012B01905BD001237A
:1025200082F824304B681F26062B14682DD90C2BFB
:1025300003EB830344D8256B0868233B9E4025EAC0
:10254000060500FA03F32B43236309282BD907263A
:1025500000EB40038D681E3BE1689E409D4021EAF0
:102560000603A0F110012B430129E36026D82A4B72
:102570009C4234D00120936A43F0200393620023ED
:1025800082F8243003B070BC704703EB8303086803
:10259000656B053B9E4025EA060500FA03F32B43D5
:1025A00009286363D3D8072500EB400089682369B5
:1025B0008540814023EA0500084320610020DEE7D2
:1025C000E56A0868413B9E4025EA060500FA03F3E8
:1025D0002B43E362B9E7022003B070BC7047A368E5
:1025E0001B02EBD4A368102843F40003A360E5D1D9
:1025F0000A4B0B491B68A1FB03139B0C03EB8303E2
:102600005B000193019B002BD8D0019B013B019300
:10261000019B002BF9D1D1E70024014028000020C4
:1026200083DE1B43002330B5026883B001939368B7
:10263000D90727D41B4B04461B681B489168A0FB95
:10264000030341F001019B0C91600193019B2BB1AD
:10265000019B013B0193019B002BF9D1FFF75AFE2F
:10266000236805469B68DA070CD4FFF753FE431B2B
:10267000022B236803D99A6812F0010205D09B68E7
:10268000DB07F2D5002003B030BD0120A36A84F837
:10269000242043F01003A362E36A0343E36203B020
:1026A00030BD00BF2800002083DE1B4390F824309B
:1026B000012B38D0012310B580F824300446FFF7F1
:1026C000B1FF60BBA36A2268294923F4407323F059
:1026D000010343F480738A42A36226D0A36A23F4E1
:1026E0008013A362536859052BD4A36A002113F405
:1026F000805318BFE36A84F8241018BF23F0060340
:10270000E3626FF002031360936803F46023B3F590
:10271000602F1DD0936843F48013936010BD002395
:1027200084F8243010BD02207047124B596811F410
:10273000702FD3D0A16A41F48011A1625B685B0560
:10274000D3D5A36A23F4405343F48053A362CCE768
:10275000074B9A4204D0936843F4A003936010BDE2
:10276000A3F580635B6813F4702FD3D1F3E700BF48
:10277000002801400024014038B503689A68D40756
:1027800001D4002038BD9A68044622F001029A6004
:10279000FFF7C0FD054623689B68D907F1D5FFF711
:1027A000B9FD431B022B2368F6D99A68D207F3D5EB
:1027B0000120A36A43F01003A362E36A0343E362C8
:1027C00038BD00BF002270B590F8243082B0012BD4
:1027D000019262D0012380F824300446FFF7CCFF39
:1027E000054628B10023284684F8243002B070BD85
:1027F000A36A2F4A23F4885323F0020343F0020311
:10280000A3620220166800F083FFB6FBF0F67600A4
:102810000196019B2BB1019B013B0193019B002B76
:10282000F9D12046FFF7FEFE2268936843F00803C3
:102830009360FFF76FFD236806469A6811070BD572
:10284000FFF768FD831B0A2B236802D99A681207D9
:1028500016D49A681007F3D49A6842F004029A607A
:10286000FFF758FD064623689B68590719D5FFF7FF
:1028700051FD831B0A2B2368F6D99A685207F3D5BA
:10288000012500222846A36A84F8242023F012039D
:1028900043F01003A36202B070BD0225284602B0C7
:1028A00070BDA36A23F0030343F00103A36299E719
:1028B000280000202DE9F04104468CB00F469046D8
:1028C00068463022002105F07FF994F82430012B6E
:1028D00062D00125334E84F82450B368009603F487
:1028E0006023B3F5602F0AD000222846A36A84F83B
:1028F000242043F02003A3620CB0BDE8F081204601
:10290000FFF790FE054630B10023284684F82430B6
:102910000CB0BDE8F0816846FFF784FE054600284C
:10292000F2D1A26A204B2168134043F48073A36262
:102930004B685B0505D5A36A23F4405343F48053E9
:10294000A36200236FF00202206A184E84F824303C
:10295000E3628662164B174E4C31C0E90B6341F8B7
:102960004C2C51F8446C434646F480763A4641F884
:10297000446C00F0E1F8284623689A6802F460226B
:10298000B2F5602F9A680CBF42F4A00242F48012A4
:102990009A600CB0BDE8F081022528460CB0BDE875
:1029A000F08100BF00280140FEFCEFFF8D240008ED
:1029B000F1240008E124000890F82420012A2AD0FC
:1029C000034601201A6883F824009068C00712D4D7
:1029D0001248806810F001000DD130B4104CA242B2
:1029E00012D001209A6A42F020029A62002283F8F3
:1029F000242030BC70479A6A012042F020029A627B
:102A0000002283F82420704754680D6824F4702154
:102A100029435160EAE70220704700BF00280140C7
:102A2000002401404FF6FF01064A0302D06803F478
:102A3000E0630840034343F0BF6343F40033D360D3
:102A4000704700BF00ED00E0194B30B4DB68C3F302
:102A50000223C3F10705042D03F1040428BF042554
:102A6000062C19D94FF0FF34033B9C4022EA0402A4
:102A70004FF0FF34AC4021EA04019940002841EABC
:102A800002010CDB090100F16040C9B200F56140B0
:102A900080F8001330BC704700221346E8E7054B6E
:102AA00000F00F000901C9B20344197630BC704729
:102AB00000ED00E0FCEC00E0002807DB012300F063
:102AC0001F01034A8B40400942F82030704700BF85
:102AD00000E100E040B30346F0B4D0E901264FF432
:102AE000807500243243DE68006832430F491E6956
:102AF0000F4F014432435E69A7FB017132439E6967
:102B0000DF69324306680909890026F47F563A4393
:102B100026F03006196407493243D96302601D84E8
:102B200020469C63F0BC704701207047F8FFFDBF52
:102B3000CDCCCCCC00000240F0B4044690F820008C
:102B4000012838D0012594F8210084F82050A842AB
:102B500005D0002384F820300220F0BC7047022703
:102B60000026256884F82170A663276C2E68B8407B
:102B700026F00106E76B2E60666878606B60E36A9A
:102B8000102E0BBFAA60A960E960EA6053B12B6800
:102B900043F00E032B602B68002043F001032B60F1
:102BA000F0BC70472B6823F004032B602B6843F0C4
:102BB0000A032B60EFE70220F0BC704790F8212059
:102BC0000346022A06D004210022816380F82020D7
:102BD00001207047012170B44FF480751A681E6C93
:102BE0001468B14024F00E0414601468002024F02E
:102BF00001041460DA6B51601D8470BC704700BF23
:102C000090F821200346022A03D0042201209A636F
:102C10007047026810B511681B4821F00E01116061
:102C20001168824221F00101116021D017498A42C6
:102C30001AD014318A421DD014318A421DD0143169
:102C40008A421DD014318A420CBF4FF480124FF0DB
:102C500080724FF480700E4C596B6260188429B1F9
:102C600018468847002010BD1022F2E7084610BD24
:102C70000122EEE74FF48072EBE74FF48052E8E771
:102C80004FF48032E5E700BF080002401C0002401C
:102C900000000240042270B4D0E90F613468036878
:102CA0008A4022421D681FD06A071DD51A68910606
:102CB00003D41A6822F004021A603E4A93425AD0A2
:102CC000143293425FD01432934266D0143293424E
:102CD00069D0143293425BD0143293420CBF4FF44C
:102CE00080034FF0806347E002228A40224222D0D4
:102CF000AA0720D51A68910606D401211A6822F085
:102D00000A021A6080F821102A4A934229D014320C
:102D1000934240D01432934242D01432934234D082
:102D20001432934242D0143293420CBF4FF400133A
:102D30004FF0007316E008228A40224219D02A0779
:102D400017D501244FF480751A6804FA01F122F0B6
:102D50000E021A60036B7160846305844BB170BC12
:102D6000184702230021144C826A636080F8201007
:102D70003AB970BC704704230F49C26A4B60002AFD
:102D8000F7D070BC10474023F6E74FF40053E9E753
:102D90004FF48023F0E72023E4E74FF48063EBE770
:102DA0004FF40073DEE74FF48043E5E74FF4003360
:102DB000D8E700BF08000240000002402DE9F04FB4
:102DC0000C6885B0002C00F09E800026DFF8F4C16E
:102DD0003346774FDFF8F081DFF8F0E1009004E050
:102DE000013334FA03F200F08E8001229A4032EA75
:102DF000040002EA0405F3D14C68122C00F286802C
:102E0000122C0CD8DFE804F08ABFBC0A0B0B0B0BAA
:102E10000B0B0B0B0B0B0B0B0BB9B6000026FF2D8E
:102E200000F28380DDF800904FEA830A0F24D9F87E
:102E3000002004FA0AFB22EA0B0206FA0AFA42EA26
:102E40000A02C9F80020D1F8049019F0805F00F060
:102E50008F80DCF818A023F003024AF0010ACCF8B6
:102E600018A0DCF818A002F180420AF0010ACDF89F
:102E70000CA002F5803203F0030ADDF80CB04FEA33
:102E80008A0AD2F808B004FA0AF42BEA0400019086
:102E9000009C4848844213D000F5806084427DD075
:102EA0004548844271D0454884420CBF4FF0030B23
:102EB0004FF0040B01980BFA0AFA40EA0A0001905D
:102EC000019819F4803F90603A6814BF2A43AA43DE
:102ED0003A607A6819F4003F14BF2A43AA437A6023
:102EE000BA6819F4801F14BF2A43AA43BA6019F4C0
:102EF000001FFA6839D01543FD600C68013334FABD
:102F000003F27FF472AF05B0BDE8F08F444505D001
:102F100013D9744502D02A48844280D18C68E4B920
:102F2000FF2D4FF004067FF67DAF009A4FEA830A2B
:102F3000AAF1200A02F1040978E7DFF894904C45E1
:102F4000ECD009F570294C45E8D0A9F580194C451D
:102F50007FF465AF8C68002CE2D00098012C4FF014
:102F600008060CBF0261426159E722EA0505FD60CF
:102F70000C6835E7CE680C3651E7CE6804364EE76C
:102F8000CE6808364BE7CE6849E74FF0020B019850
:102F90000BFA0AFA40EA0A00019091E74FF0010BA0
:102FA00001980BFA0AFA40EA0A00019088E700BF8C
:102FB00000040140000801400010014000140140DD
:102FC00000003210001002400000221000003110FA
:102FD0000000121002B9090401617047044A5169E6
:102FE000014200D1704708B55061FEF7A9FE08BD47
:102FF00000040140002800F0C3812DE9F04103687E
:103000000446DD0782B035D5A6494A6802F00C02B5
:10301000042A00F0EF804A6802F00C02082A00F04F
:10302000E5806368B3F5803F10D0002B00F00D8180
:10303000B3F5A02F00F08F819A4B1A6822F48032EA
:103040001A601A6822F480221A6004E0954A136814
:1030500043F480331360FFF75DF9924E054605E0B7
:10306000FFF758F9401B642800F2EB8033689A039D
:10307000F6D523689F0728D58A4A516811F00C0FAE
:1030800000F08E80516801F00C01082900F0848066
:103090002369002B00F025810122834B814E1A60A9
:1030A000FFF738F9054605E0FFF734F9401B022821
:1030B00000F2C78033689807F6D53368626923F059
:1030C000F80343EAC203336023681A071FD45D077D
:1030D00041D5744BDA69D0007DD50025734B1A6851
:1030E000D10540F19D80E368012B00F00B81002B9E
:1030F00000F0C580052B6B4B1A6A00F0398122F075
:1031000001021A621A6A22F004021A62FFE0A3693D
:10311000002B50D00122664B624E1A60FFF7FAF87E
:10312000054605E0FFF7F6F8401B022800F289800B
:10313000736A9B07F6D55F4B5F4A1B68A2FB0323AC
:103140005B0A019300BF019B5A1E0192002BF9D12B
:1031500023685D07BDD4E069D0B1524D6A6802F0C2
:103160000C02082A00F0E68002284FF00001534AC2
:1031700000F008811160FFF7CDF82C46054604E009
:10318000FFF7C8F8401B02285BD823689B01F7D4DF
:10319000002002B0BDE8F0815268D6033FF578AF59
:1031A000404A126895072FD52269012A2CD00120A8
:1031B00002B0BDE8F0813E4A3A4E1360FFF7AAF82C
:1031C000054604E0FFF7A6F8401B022839D8736AC9
:1031D0009F07F7D4BCE7DA69012542F08052DA6133
:1031E000DB6903F080530093009B77E74A68D003C4
:1031F0007FF517AF2B4A126891037FF53BAF6268EA
:10320000002A7FF437AFD2E7264960690A6822F0C6
:10321000F80242EAC0020A601A077FF558AF76E763
:103220001A681F4642F480721A60FFF773F8064668
:103230003B68DA053FF557AFFFF76CF8801B642851
:10324000F6D9032002B0BDE8F08103F1804303F515
:1032500004331A681E4622F480321A601A6822F477
:1032600080221A60FFF756F8054604E0FFF752F88F
:10327000401B6428E5D833689B03F7D4F9E603F1D3
:10328000804303F504331A6A1F4622F001021A62D2
:103290001A6A41F2883822F004021A62FFF73AF8FB
:1032A000064612E00010024000004242007000405A
:1032B0008004424228000020D34D62106000424248
:1032C000FFF728F8801B4045BBD83B6A9807F7D426
:1032D000002D3FF440AF444AD36923F08053D361BB
:1032E00039E7424A404E1360FFF714F8054604E000
:1032F000FFF710F8401B0228A3D833689907F7D4CA
:103300002368E2E6384A136A43F001031362FFF7C9
:1033100001F841F288380646334F04E0FEF7FAFF21
:10332000801B40458DD83B6A9B07F7D5002D3FF4A5
:1033300012AFD0E701283FF42CAF6B68226A03F488
:10334000803191427FF433AF606A03F47013181A2E
:1033500018BF01201DE703F18043A3F53C331A6831
:1033600042F480221A601A6842F480321A6072E6CF
:1033700042F004021A621A6A42F001021A62C6E7B7
:10338000012070471160FEF7C5FF064605E0FEF715
:10339000C1FF801B02283FF654AF2B689901F6D479
:1033A000236AB3F5803F05D16A68A16822F4003230
:1033B0000A436A6001200C4D616A6A680B4322F47B
:1033C00074120B4913436B600860FEF7A3FF2C4691
:1033D000054605E0FEF79EFF401B02283FF631AF91
:1033E00023689A01F6D5D3E600100240000042425D
:1033F00060004242002800F0AF805D4A2DE9F041B4
:103400001368044603F007038B420D4686B00DD2C5
:10341000136823F007030B431360136803F00703DB
:103420008B4203D0012006B0BDE8F08123689807E5
:1034300014D5590704D54F494A6842F4E0624A60FE
:103440001A0704D54B494A6842F460524A60494918
:10345000A0684A6822F0F00202434A60DB0720D5E8
:103460006268444B012A1B6878D0022A71D0980701
:10347000D8D5404E41F28838736823F003031343D4
:103480007360FEF747FF074604E0FEF743FFC01BEB
:10349000404566D87368626803F00C03B3EB820F93
:1034A000F3D1334A136803F00703AB4209D9136819
:1034B00023F007032B431360136803F00703AB42A9
:1034C000B0D12368590706D52A49E0684A6822F432
:1034D000E06202434A601A0707D5264A2169536809
:1034E00023F4605343EAC103536040F20122224BAC
:1034F00006ACADF804200FCB04E90F001D494A6863
:1035000002F00C03082B11D01C4B1A4A1C485268BD
:103510001C49C2F30312805C1B4AC3400868136055
:10352000FEF732FE002006B0BDE8F081C2F383430F
:10353000234413F8100CD30315D54A680F4BC2F37C
:10354000404203FB00F3224412F8142CB3FBF2F3C5
:10355000DBE79E018DD465E7012070479F0388D487
:1035600060E703205FE7094B03FB00F3CDE700BFF3
:1035700000200240001002409C7F000800127A00E8
:10358000847F0008300000202800002000093D0052
:10359000044B05495B68054AC3F30223CB5C106802
:1035A000D840704700100240947F00082800002097
:1035B000044B05495B68054AC3F3C223CB5C106822
:1035C000D840704700100240947F00082800002077
:1035D0000F220D4B02605A6810B402F003024260E1
:1035E0005A680A4C02F0F00282605A6802F4E06203
:1035F000C2605B68DB0803F4E0630361236810BC0E
:1036000003F007030B6070470010024000200240E7
:103610002DE9F0410446006882B0C3072AD5394B32
:10362000DA69D7003DD5384B00251A68D60546D54E
:10363000344E336A13F440730FD0616801F4407262
:103640009A420BD001270020336A304A23F440719C
:10365000176010603162D90745D46168294A136A3E
:1036600023F440730B4313621DB1D36923F08053DD
:10367000D3612068830706D52249A3684A6822F4EB
:1036800040421A434A6010F0100007D000201D4A43
:10369000E168536823F480030B43536002B0BDE834
:1036A000F081DA69012542F08052DA61DB6903F0CA
:1036B00080530193019B144B1A68D605B8D41A683D
:1036C0001F4642F480721A60FEF724FE06463B68ED
:1036D000D805ADD4FEF71EFE831B642BF7D903205B
:1036E00002B0BDE8F081FEF715FE41F288380746CA
:1036F00004E0FEF70FFEC01B4045F0D8336A9A077E
:10370000F7D5AAE700100240007000404004424292
:1037100010B5044640F2012286B0344B0DF1180C6E
:10372000022CADF804200FCB0CE90F0006D0102CB2
:1037300028D0012C0ED0002006B010BDFFF738FFB6
:103740002B4B5B68C3F3813301335B00B0FBF3F0B9
:1037500006B010BD40F2023225490B6A1A40B2F59C
:10376000817F33D003F44073B3F5007F31D0B3F5DC
:10377000407FE0D14FF22443086810F4003018BFB6
:103780001846D9E71A4B5A68186810F08070D3D0E1
:10379000C2F3834106A80144D20311F8100C20D5CE
:1037A0005B6806A9C3F340430B44124A13F8143C68
:1037B000B2FBF3F300FB03F00D4B5B685B02BBD481
:1037C0000D4B4000A3FB00304008B5E74FF400402C
:1037D000B2E749F64043486A10F0020018BF1846A5
:1037E000AAE7064B03FB00F0E6E700BF9C7F00085A
:1037F0000010024000127A00ABAAAAAA00093D00FC
:1038000000285DD038B590F83D30044603F0FF0243
:10381000002B3CD0022322682A4984F83D308A429A
:10382000136839D0B2F1804F28D0A1F594318A4283
:1038300024D001F580618A4220D0A569E0686168E2
:1038400023F080032B431360D06291620123536104
:1038500084F8463084F83E3084F83F3084F84030B5
:1038600084F8413084F8423084F8433084F844309E
:1038700084F8453084F83D30002038BDA16823F03D
:1038800070030B43216923F440730B43D5E780F8A1
:103890003C20FEF739FBBDE7A16823F070030B4322
:1038A000216923F440730B43A16923F080030B4388
:1038B0001360E368D3626368936263691363C5E767
:1038C00001207047002C014090F83D30012B1FD1A2
:1038D0000222036880F83D20DA680F4942F00102B5
:1038E0008B42DA6009D0B3F1804F06D00B4A934285
:1038F00003D002F58062934204D19A6802F0070275
:10390000062A07D01A68002042F001021A607047A8
:103910000120704700207047002C01400004004047
:10392000704700BF00285DD038B590F83D300446A0
:1039300003F0FF02002B3CD0022322682A4984F8BE
:103940003D308A42136839D0B2F1804F28D0A1F5BA
:1039500094318A4224D001F580618A4220D0A56941
:10396000E068616823F080032B431360D0629162AA
:103970000123536184F8463084F83E3084F83F30A8
:1039800084F8403084F8413084F8423084F8433081
:1039900084F8443084F8453084F83D30002038BD48
:1039A000A16823F070030B43216923F440730B4398
:1039B000D5E780F83C20FFF7B3FFBDE7A16823F00F
:1039C00070030B43216923F440730B43A16923F077
:1039D00080030B431360E368D36263689362636997
:1039E0001363C5E701207047002C014031BB90F8FC
:1039F0003E30012B2ED1022380F83E300122036895
:103A000001F01F01186A02FA01F120EA01001862B0
:103A1000186A1F4A0143934219621DD0B3F1804FC7
:103A20001ED01C4A93421BD002F58062934217D0ED
:103A30001A68002042F001021A607047042916D06B
:103A400008291CD090F84130012B03D1022380F8C3
:103A50004130D3E7012070475A6C42F400425A6467
:103A60009A6802F00702062AE2D10020704790F817
:103A70003F30012BEED1022380F83F30BEE790F8B3
:103A80004030012BE6D1022380F84030B6E700BF7A
:103A9000002C01400004004090F83C30012B00F065
:103AA000CB800123F0B480F83C300C2A31D8DFE819
:103AB00002F007303030663030309530303036002C
:103AC00003688F681D6A0E6825F001051D621A6A79
:103AD000734DD3F804C09C6922F0020224F07304F1
:103AE000AB4242EA070244EA060400F0A7804D68B0
:103AF000C3F804C09C615D631A629C690D6944F05F
:103B000008049C61996921F0040199619A692A432A
:103B10009A61002380F83C30F0BC18467047036877
:103B20008F681D6A0E6825F480551D621A6A5C4D07
:103B3000D3F804C0DC6922F4005224F4E644AB421A
:103B400042EA073244EA062400F095804D68C3F843
:103B500004C0DC611D641A62DC690D6944F4006410
:103B6000DC61D96921F48061D961DA6942EA052210
:103B7000DA61002380F83C30F0BC184670470368D7
:103B80008F681D6A0E6825F010051D621A6A444D83
:103B9000D3F804C09C6922F0200224F4E644AB422E
:103BA00042EA071244EA062456D04D68C3F804C01E
:103BB0009C619D631A629C690D6944F400649C6178
:103BC000996921F4806199619A6942EA05229A61B2
:103BD000002380F83C30F0BC1846704703688F68BB
:103BE0001D6A0E6825F480751D621A6A2C4DD3F883
:103BF00004C0DC6922F4007224F07304AB4242EA90
:103C0000072244EA06043CD04D68C3F804C0DC61D6
:103C1000DD631A62DC690D6944F00804DC61D9696E
:103C200021F00401D961DA692A43DA61002380F8BE
:103C30003C30F0BC1846704702207047CF6822F035
:103C400008022CF4407C3A43D1E90556354322F072
:103C5000040245EA0C0C4AE7CE6822F080022CF4FC
:103C6000406C42EA0612D1E905753D4322F040025C
:103C70004CEA850C99E74D692CF4804C4CEA851C84
:103C800064E7CE6822F400622CF4405C42EA06222B
:103C9000D1E905753D4322F480624CEA051CB3E787
:103CA000002C014090F83C30012B74D0F0B402237A
:103CB0000124026880F83C4080F83D3094680B682D
:103CC00024F47F4424F07704602B946065D031D8CD
:103CD000402B48D021D9502B16D1156A166A4C6852
:103CE00026F00106CF681662936925F00A0123F0D9
:103CF000F00343EA0713214393611162936823F0B1
:103D0000700343F0570393600023012280F83C3096
:103D100080F83D20F0BC18467047202B02D01ED9F9
:103D2000302BF1D1916821F070010B4343F0070370
:103D30009360E9E7702B49D0B3F5005FE4D1D1E996
:103D40000153CC6891682B4343EA042321F47F415B
:103D50000B439360936843F480439360D4E733F05C
:103D60001001D1D1DEE7156A166A4C6826F001060B
:103D7000CF681662936925F00A0123F0F00343EA45
:103D80000713214393611162936823F0700343F09A
:103D900047039360B8E702207047146A4D6824F027
:103DA0001004CE6814629169136A21F4704123F003
:103DB000A00343EA051341EA063191611362936857
:103DC00023F0700343F0670393609DE7CC68D1E96B
:103DD000015391682B4343EA042321F47F410B43B1
:103DE0009360936843F0770393608DE7704700BF5B
:103DF000704700BF704700BF704700BF036810B531
:103E00001A690446910702D5DA6892075FD41A69E5
:103E1000500702D5DA68510746D41A69120702D54D
:103E2000DA6810072ED41A69D20602D5DA68D006ED
:103E300018D41A69D10702D5DA68D2075DD41A6995
:103E4000100602D5DA6811065FD41A69520602D547
:103E5000DA68500661D41A69910602D5DA689206CA
:103E600043D410BD6FF01001082219612277DB697D
:103E7000204613F4407F64D0FFF7BAFF0022236886
:103E80002277D6E76FF00801042219612277DB69F7
:103E90002046990752D1FFF7A9FF2046FFF7AAFF56
:103EA000002223682277BEE76FF004010222196125
:103EB00022779B69204613F4407F3CD1FFF796FFA1
:103EC0002046FFF797FF002223682277A5E76FF0CF
:103ED00002010122196102779B699B0725D0FFF738
:103EE00087FF00222368227791E76FF020022046A7
:103EF000BDE810401A6100F05DB86FF00102204685
:103F00001A61FDF739FF236899E76FF080022046B8
:103F10001A6100F051F8236897E76FF040022046DD
:103F20001A61FFF769FF236895E7FFF75FFF2046F7
:103F3000FFF760FFD5E7FFF75BFFC4E7FFF758FF28
:103F4000AEE7FFF753FF2046FFF754FF96E700BFA9
:103F500090F83C30012B26D00222036830B480F860
:103F60003D205A680C68114D22F070022243AB428A
:103F70009C685A6009D0B3F1804F06D00C4A934236
:103F800003D002F58062934204D14A6824F0800491
:103F900014439C600023012280F83C3080F83D20CF
:103FA00030BC184670470220704700BF002C01400B
:103FB00000040040704700BF704700BF002861D078
:103FC00070B590F83D30044603F0FF02002B51D04D
:103FD0002422236884F83D20DA68E06822F4005245
:103FE000DA601969A26821F4405101431961D96866
:103FF000D4E9045021F4B0512A4321F00C010243CA
:104000000A43DA605A69A0691F4922F440720243E8
:104010008B425A6133D0FFF7BBFA636800EB800034
:1040200000EB80009B00B0FBF3F364220026202508
:104030001648A0FB03C1490902FB11331B013233AF
:10404000A0FB03230901226801EB5313936013695A
:10405000304623F490431361536923F02A035361DC
:10406000D36843F40053D360266484F83D5084F849
:104070003E5070BD80F83C20FEF708F8A8E7FFF737
:1040800097FACAE701207047003801401F85EB51BD
:10409000F8B5044690F83D0020282BD141B33AB33F
:1040A00094F83C00012825D0012600252127E28430
:1040B000A28484F83C60606B13460F4E0F4A25645F
:1040C000216284F83D708662C2620D4E22684563AB
:1040D00006630432FEF730FD6FF040022368284685
:1040E0001A6084F83C505A6942F080025A61F8BD67
:1040F0000120F8BD0220F8BDA1410008D14100080F
:10410000E541000890F83E30202B3DD1002939D000
:10411000002A37D0F0B590F83C300446012B83B02C
:1041200034D0012600252227806B1346A162A28588
:1041300084F83C600A46174E17492563256484F8C5
:104140003E708662C162154E216845630663043184
:10415000FEF7F2FC2846236801951A6801925A6816
:1041600084F83C500192019ADA6842F48072DA6075
:104170005A6942F001025A615A6942F040025A619A
:1041800003B0F0BD0120704702207047022003B049
:10419000F0BD00BFA545000889450008E5410008BD
:1041A00008B50368406A1B6813F020030AD102684F
:1041B000C384536923F080035361D36843F0400301
:1041C000D36008BDFDF78EFD08BD00BF704700BF7E
:1041D00008B5406AFFF7FAFF08BD00BF704700BF8F
:1041E000704700BF08B5406A0368596990F83D20E0
:1041F000212A0BD0596990F83E20222A16D0036C50
:1042000043F010030364FFF7EBFF08BD0906F1D587
:1042100000222021C284DA6822F0C002DA6080F82D
:104220003D10596990F83E20222AE8D14A06E6D589
:104230000022C285DA6822F49072DA605A6922F0AC
:1042400001025A61026B012A03D1DA6822F01002DE
:10425000DA602022002380F83E200363CFE700BF0E
:1042600008B50023406AC385C384FFF7B9FF08BDC2
:10427000704700BF8368B3F5805F3BD0826A002B34
:104280002FD003685B6803F07F031370836A0133E8
:104290008362C38D013B9BB2C3854BBB10B5202409
:1042A000026882B0D16821F02001D160D16821F488
:1042B0008071D160516921F00101516180F83E4067
:1042C000016B012921D10363D16821F01001D16074
:1042D0001168C90623D4818DFFF7CAFF002002B000
:1042E00010BD0369002BCCD103685B681370CDE768
:1042F0000020704703696BB90268836A5268C2F391
:10430000080223F8022B8362C3E7FDF7FFFC0020BD
:1043100002B010BD0368826A5B681370B6E7019350
:104320001368019353680193019BD4E770B5036848
:1043300004461A6882B01607D9685D694ED19606A0
:1043400002D58D0600F19080206B01280BD0160657
:1043500002D50D0600F19280500602D54A0600F102
:10436000AB8002B070BDD506F1D5C806EFD50021EF
:1043700001911A6801925A680192019A5A6912F0E1
:10438000400200F0D280A06B0268526892B2002A0C
:10439000E7D0A58D9542E4D98669E285202E16D016
:1043A0002025DA6822F48072DA605A6922F001026C
:1043B0005A615A6922F040025A6184F83E502163E2
:1043C000DA6822F01002DA60FEF7F8FBA58DE18DC5
:1043D0002046691A89B2FFF74BFFC2E705F00105D5
:1043E00001F490702843AFD0D00705D5CE0503D592
:1043F000206C40F00100206450072CD52DB1206CBA
:10440000960740F00200206429D4160707D501F072
:104410002000284303D0206C40F008002064206C6A
:1044200000289ED0900609D58A0607D594F83E202C
:10443000222A03D12046FFF71DFF23685A69256C05
:1044400002F0400205F00805154340D12046FFF771
:10445000C7FE256485E79007D7D5002DD5D0206C01
:1044600040F004002064D0E790F83E30222B7FF427
:1044700078AF02B0BDE87040FFF7FCBE94F83D2075
:10448000212A7FF46EAFA268B2F5805F6ED0226AF7
:10449000511C216212785A60E28C013A92B2E28495
:1044A000002A7FF45EAFDA6822F08002DA60DA6810
:1044B00042F04002DA6054E72021DA68204622F018
:1044C0004002DA6084F83D10FDF70CFC49E7DA6839
:1044D00022F49072DA605A6922F001025A61226B6A
:1044E000012A03D1DA6822F01002DA6000222021CA
:1044F00084F83E1022635A69560612D55A69A06B99
:1045000022F040025A6160B11E4B4363FEF778FB14
:1045100000283FF426AFA06B436B02B0BDE87040AB
:1045200018472046FFF75CFE1BE7E08DE18D80B267
:1045300089B200293FF415AFA18D081A81B2002974
:104540003FF40FAF2025D86820F49070D8605869E8
:1045500020F00100586184F83E502263DA6820465A
:1045600022F01002DA60FFF783FEFAE62269002AE1
:104570008DD1226A32F8021BC1F308015960226210
:104580008AE700BF61420008406A08B5036B012B4F
:1045900002D0FFF723FE08BD818D4908FFF768FEB2
:1045A00008BD00BF08B50368406A1B6813F020030C
:1045B00013D120210268C385D36823F48073D360AC
:1045C000536923F001035361536923F0400353619E
:1045D00080F83E10036B012B09D0036B012B02D036
:1045E000FDF794FB08BD818DFFF742FE08BDD3683F
:1045F00023F01003D360F0E710B502F0F3FD20B113
:10460000D0E90030BDE81040184710BDEFF3058336
:1046100083B9EFF310836BB9084B1868022803D0F5
:1046200028B901221A607047EFF3118313B94FF0D4
:10463000FF3070476FF00500704700BFC8010020D1
:10464000EFF30583C3B910B5EFF310848CB90C4BAD
:104650001A68022A07D0012A08D102221A6001F042
:10466000B5FC204610BDEFF3118313B94FF0FF30B6
:1046700010BD6FF0050010BD6FF00500704700BF62
:10468000C8010020F0B5002487B00594EFF305853C
:10469000002D3BD1EFF31083002B3ED1294B1B683B
:1046A000022B36D0002838D000238DF8133002B307
:1046B0001468002C39D09369002B31D05D1E372D42
:1046C00024D85568ED0721D455695DBB4FF0400CE7
:1046D00097686FB3D6686B2E1FD91269EAB1E5B13E
:1046E000CDE90127009362460B46214601F09AFB73
:1046F0000DE0402218230DF1130405AD0093019540
:104700000B46214601F002FC012806D0002007B02C
:10471000F0BDEFF31183002BC4D0059807B0F0BDB6
:104720001823CEE74FEA950CD2E70DF11304C2E748
:10473000D568002DF1D11269002AEED11FFA8CF252
:10474000DBE700BFC801002048B3002927DB4FF09A
:10475000FF3330B585B004460293EFF305834BB9C0
:10476000EFF3108333B91B4B1B68022B23D1EFF3FC
:10477000118303B3002503AA2B4600922046012291
:10478000039502F0B7F902AB20462A462946009568
:1047900002F0B0F9039B2BB9029805B030BD6FF061
:1047A000030070474FF080520B4B1A60BFF34F8FDE
:1047B000BFF36F8FF0E700230122204602F030F9AB
:1047C00000222046114602AB02F02AF9029805B0F9
:1047D00030BD00BFC801002004ED00E02DE9F04F1E
:1047E00083B0EFF3058373BBEFF310835BBB4A4BDE
:1047F00005461B680E46022B144620D0002D58DBC0
:1048000016F0020F0CBFA8464FF0000801F080FC24
:10481000002C82460CBF6FF002096FF0010906F010
:10482000010654D0AEB901AF23463A4641460020B6
:1048300002F084F8012829D038B14E46F4E7EFF3AE
:104840001183002BDAD06FF00509484603B0BDE8AC
:10485000F08F002601AF23463A464146002002F081
:104860006DF8012803D00028EFD04E46F3E7019BF6
:104870002E401E4335EA060327D001F049FCA0EB89
:104880000A039C42544410D3241AE4E7019B2E40AF
:104890001E4315EA060B18D101F03AFCA0EB0A03FF
:1048A0009C42544403D3241ABEE70024D3E75C4659
:1048B000BAE76FF00309484603B0BDE8F08F019EE8
:1048C0002C40264335EA060322D1B146BDE701AFAD
:1048D00066B900233A461846414602F02FF80128EF
:1048E00011D06FF002060028F3D1AEE700233A465C
:1048F0001846414602F022F80128E0D06FF0020489
:104900000028F3D1A1E7019B2E401E433542DCD1A4
:104910006FF0020999E700BFC801002008B5EFF366
:10492000058363B9EFF310834BB9084B1B68022B67
:1049300001D038B908BDEFF31183002BF9D06FF027
:10494000050008BD01F038FD002008BDC8010020A9
:10495000F0B51C4683B0EFF30583DBB9EFF31083AA
:10496000C3B91A4B07461B680E46022B154614D0D6
:1049700087B1082002F0E2FD034658B1321E18BF8D
:104980000122C0E900758CB1A168206851B1E468CA
:104990002F2C13D8002003B0F0BDEFF31183002BB0
:1049A000E6D0F7E7E1680029F4D10446084920463B
:1049B0000091012102F00AFB03B0F0BD044CCDE9E7
:1049C0000041012102F064FBE5E700BFC8010020BF
:1049D000F9450008EFF30583DBB9EFF31083C3B9A2
:1049E0000F4B0A461B68022B0FD0A8B1002300B55D
:1049F00083B00421009302F0C3FB01280CBF002008
:104A00006FF0020003B05DF804FBEFF31183002B9D
:104A1000EBD06FF0050070476FF00300704700BFE8
:104A2000C8010020EFF3058363B9EFF310834BB99E
:104A30000C4B1B68022B0CD048B1836823B1C268B1
:104A40001F2A0BD800207047C368002BFAD100F052
:104A500049BAEFF31183002BEED0F3E7184600F0CC
:104A60001BBA00BFC8010020002833D010B511F0D8
:104A70007F4F0C4682B019D1EFF3058313B9EFF3E2
:104A80001083BBB10023214601AA019300F040FB33
:104A900018BB019BDBB14FF08052124B1A60BFF381
:104AA0004F8FBFF36F8F204602B010BD6FF0030031
:104AB00002B010BD0C4B1B68022B03D1EFF3118326
:104AC000002BDFD1214600F0DFFA02B010BD2046F6
:104AD00002B010BD6FF0030070476FF0020002B02B
:104AE00010BD00BF04ED00E0C801002038B5C8B11A
:104AF00011F07F4F0D4615D10446EFF3058313B92E
:104B0000EFF3108393B1204600F0B0FA0346294634
:104B100020461C4600F0A2FA002808BF6FF00204ED
:104B2000204638BD6FF00304204638BD064B1B6895
:104B3000022B03D1EFF31183002BE4D12946204649
:104B4000BDE8384000F066BAC8010020034698B1BD
:104B5000EFF305826AB9EFF3108252B9074A12687F
:104B6000022A02D1EFF311821AB91846002100F08F
:104B700051BA184600F07ABA704700BFC801002049
:104B800090B370B511F07F4F0C4682B028D11D460E
:104B9000EFF3058303BBEFF31083EBB9154B1B68F1
:104BA000022B15D002F0010682F0020233462146A4
:104BB0000095C2F3400200F0A3F9C6B184420DD0C3
:104BC000002D14BF6FF001006FF0020002B070BD45
:104BD000EFF31183002BE5D06FF0050002B070BD3C
:104BE0006FF0030002B070BD6FF003007047044225
:104BF000E6D0F3E7C8010020EFF3058363BBEFF3D2
:104C000010834BBB70B51F4B14461B6884B0022B3E
:104C100024D0F0B1E9B1BCB1A36823B3E2684F2A54
:104C200017D92269AAB101FB00F56669AE4210D31B
:104C30000025009500F002FB58B12468214603903E
:104C400000F08AFF039805E0224600F069FB002887
:104C5000F4D1002004B070BD00207047EFF3118341
:104C6000002BD6D0F5E7E368002BF2D12369002BA7
:104C7000EFD16269002AECD100F052FB0028DCD1B0
:104C8000E7E700BFC801002010B51C4682B0EFF373
:104C9000058313B9EFF31083CBB180B379B374BB41
:104CA000234601AA019400F00DFD012824D1019BA7
:104CB00013B9002002B010BD4FF08052114B1A60A2
:104CC000BFF34F8FBFF36F8F204602B010BD0E4B66
:104CD0001B68022B0BD090B189B10023224600F053
:104CE0006BFB0128E5D03CB16FF00100E2E7EFF388
:104CF0001183002BD1D1EEE76FF00200DAE76FF0FD
:104D00000300D7E704ED00E0C801002010B51C4601
:104D100082B0EFF3058313B9EFF31083C3B170B31F
:104D200069B364BB01AA019400F0B8FE012823D145
:104D3000019B13B9002002B010BD4FF08052114BFF
:104D40001A60BFF34F8FBFF36F8F204602B010BDC4
:104D50000D4B1B68022B0AD088B181B1224600F0AE
:104D600017FD0128E6D03CB16FF00100E3E7EFF357
:104D70001183002BD3D1EFE76FF00200DBE76FF078
:104D80000300D8E704ED00E0C8010020402330B460
:104D9000034D044C05600C60136030BC704700BFCD
:104DA0005C0100205C000020802330B4034D044CE3
:104DB00005600C60136030BC704700BFCC0300205E
:104DC000CC01002038B5B8B111F07F4F0D4608D0A6
:104DD0004FF0500383F31188BFF36F8FBFF34F8FF2
:104DE000FEE7044602F07EFA216821EA050121600F
:104DF000BDE8384002F098BA4FF0500383F31188B1
:104E0000BFF36F8FBFF34F8FFEE700BFF8B50028E9
:104E100038D011F07F470C4608D04FF0500383F391
:104E20001188BFF36F8FBFF34F8FFEE7054601F088
:104E300067F929682E69214305F10C04B442296001
:104E40000CD11AE0114207D0DB0141F0007148BFDC
:104E5000174301F075FC2968B4420CD03368304622
:104E600013F0806F766823F07F42EBD032EA010CBA
:104E7000EAD0B442F2D121EA07012960BDE8F84046
:104E800001F08ABA4FF0500383F31188BFF36F8F9C
:104E9000BFF34F8FFEE700BF78B1202310B582B07B
:104EA0000193019B202B11D04FF0500383F3118805
:104EB000BFF36F8FBFF34F8FFEE74FF0500383F3C5
:104EC0001188BFF36F8FBFF34F8FFEE700230446B7
:104ED00040F8043B00F028F901232046237702B074
:104EE00010BD00BF38B5202002F028FB044628B1D1
:104EF000002540F8045B00F017F92577204638BDFF
:104F00002DE9F047DDF82090B0B111F07F4A0C4652
:104F100009D1D1B94FF0500383F31188BFF36F8FDC
:104F2000BFF34F8FFEE74FF0500383F31188BFF3B9
:104F30006F8FBFF34F8FFEE74FF0500383F311885D
:104F4000BFF36F8FBFF34F8FFEE7174698460646B5
:104F500001F094FC10B9B9F1000F30D101F0D0F894
:104F60003568B8F1000F33D12C4234D1B9F1000FBC
:104F700038D0002F16BF4FF0807A4FF080614FF08D
:104F8000A061B8F1000F08BF51464A462143301DC9
:104F900001F0EEFA01F000FA38B94FF080521C4BE4
:104FA0001A60BFF34F8FBFF36F8F01F0BBFC83011B
:104FB00005461AD525F07F452846BDE8F0874FF015
:104FC000500383F31188BFF36F8FBFF34F8FFEE75A
:104FD00034EA0503CAD12FB125EA0404346001F094
:104FE000DBF9E9E701F0D8F9E6E702F07BF935688B
:104FF000B8F1000F06D12C4207D037B125EA0404DE
:10500000346002E034EA0503F7D002F08DF9D1E70D
:1050100004ED00E068B111F07F4F70B50C4611D07F
:105020004FF0500383F31188BFF36F8FBFF34F8F9F
:10503000FEE74FF0500383F31188BFF36F8FBFF388
:105040004F8FFEE7054602F04DF92E6826EA04046C
:105050002C6002F069F9304670BD00BF0A4600239B
:105060000146014802F0D2B8C54D0008EFF31183A4
:105070004FF0500282F31188BFF36F8FBFF34F8F51
:10508000006883F311887047F8B560B111F07F476D
:105090000C4611D04FF0500383F31188BFF36F8F8C
:1050A000BFF34F8FFEE74FF0500383F31188BFF338
:1050B0006F8FBFF34F8FFEE7054601F021F8296897
:1050C0002E69214305F10C04B44229600CD11AE089
:1050D000194207D0D20141F0007148BF1F4301F0CF
:1050E0002FFB2968B4420CD03268304612F0806F32
:1050F000766822F07F43EBD033EA010CEAD0B44269
:10510000F2D121EA0701296001F046F92868F8BDCB
:1051100010B40C46134601462246024810BC02F069
:1051200075B800BF0D4E00084FF0FF31002200F1AE
:105130000803C0E90333816002604360704700BF29
:1051400000230361704700BF436810B49C68026885
:105150008C609C6801324B606160996010BC086192
:105160000260704730B40D686B1C10D000F108036A
:105170001C465B681A68AA42FAD902684B60013281
:1051800099608C606160086130BC0260704704699E
:105190006368F2E7036910B4D0E901125C688A60C1
:1051A00051600021844208BF5A601A680161013AC7
:1051B0001A60186810BC704770B50446006CA66B86
:1051C00028B92568002D2ED00136A66370BD15467E
:1051D00002467DB9A06802F0E9FCA368216C626810
:1051E0000B449342A3601AD3226801362846A2607A
:1051F000A66370BDE06802F0D9FC226CE368216808
:105200009B1A8B42E360C2F1000202D263681A4427
:10521000E260022D0CD001360020A66370BD01367D
:105220002846A66370BD606801F038FB6560CBE777
:10523000012E38BF01260020C7E700BF70B582B03D
:105240009DF8185040B94FF0500383F31188BFF315
:105250006F8FBFF34F8FFEE71C46E3B1034672B179
:1052600011B3502001900198502826D04FF05003E0
:1052700083F31188BFF36F8FBFF34F8FFEE70029D1
:1052800044D150220192019A502AEFD1012284F890
:105290004620224614E04FF0500383F31188BFF3F9
:1052A0006F8FBFF34F8FFEE74FF0500383F31188EA
:1052B000BFF36F8FBFF34F8FFEE7012084F84600E6
:1052C000C4E90F31226002F00DF8D4E90F32FF2655
:1052D000002003FB02F321689A1A0A440B44A063DE
:1052E000C4E90131E26004F1100084F8446084F8FC
:1052F0004560FFF719FF04F12400FFF715FF02F0E6
:1053000013F8204684F84C5002B070BD4FF05003A3
:1053100083F31188BFF36F8FBFF34F8FFEE700BF9A
:10532000F8B540B94FF0500383F31188BFF36F8F86
:10533000BFF34F8FFEE70D461646074641B9502092
:1053400002F0FCF80446A0B384F8465024600CE058
:1053500001FB00F0503002F0F1F8044648B300229F
:1053600000F1500380F846200360C4E90F7501F096
:10537000B9FFD4E90F32FF25002003FB02F32168B7
:105380009A1A0A440B44A063C4E90131E26004F1B3
:10539000100084F8445084F84550FFF7C5FE04F12E
:1053A0002400FFF7C1FE01F0BFFF84F84C602046E7
:1053B000F8BD00242046F8BD2DE9F04784B00192E5
:1053C000002800F0AC8088461F460446002900F003
:1053D0009980022F0BD1E36B012B08D04FF05003C3
:1053E00083F31188BFF36F8FBFF34F8FFEE701F098
:1053F00045FA8246002800F09B804FF0000ADFF853
:10540000C09204F1240601F06DFFA26BE36B9A4297
:10541000C0F0F480022F00F0F180019D002D00F01B
:105420004A8102ADBAF1000F00F0E48001F07CFF88
:1054300000F066FE01F056FF94F84430FF2B04BFE5
:10544000002384F8443094F84530FF2B04BF002338
:1054500084F8453001F068FF284601A901F0C0F941
:10546000002840F0E88001F03DFFA26BE36B9A4218
:105470006BD001F059FF01F035FF94F845506DB243
:10548000002D05DC12E06B1E13F0FF0F5DB20DD096
:10549000636A5BB1304601F00DF90028F3D001F0EA
:1054A000E7F96B1E13F0FF0F5DB2F1D1FF2384F813
:1054B000453001F039FF01F015FF94F844506DB20A
:1054C000002D15DD04F1100A04E06B1E13F0FF0F30
:1054D0005DB20DD023695BB1504601F0EBF80028B6
:1054E000F3D001F0C5F96B1E13F0FF0F5DB2F1D1DF
:1054F000FF2384F8443001F017FF00F04DFF4FF018
:10550000010A80E7036C002B3FF463AF4FF05003B8
:1055100083F31188BFF36F8FBFF34F8FFEE74FF018
:10552000500383F31188BFF36F8FBFF34F8FFEE7F4
:10553000019B002B3FF463AF4FF0500383F31188BE
:10554000BFF36F8FBFF34F8FFEE704F1100A01F036
:10555000EBFE5046019900F0C7FF01F0C3FE94F83E
:1055600045506DB2002D05DC12E06B1E13F0FF0FED
:105570005DB20DD0636A5BB1304601F09BF8002844
:10558000F3D001F075F96B1E13F0FF0F5DB2F1D18E
:10559000FF2384F8453001F0C7FE01F0A3FE94F824
:1055A00044506DB2002D05DC12E06B1E13F0FF0FAE
:1055B0005DB20DD023695BB1504601F07BF8002845
:1055C000F3D001F055F96B1E13F0FF0F5DB2F1D16E
:1055D000FF2384F8443001F0A7FE00F0DDFE002830
:1055E0008DD14FF08053C9F80030BFF34F8FBFF318
:1055F0006F8F84E7284601F0E7F817E73A464146FF
:105600002046FFF7D9FD626A72B938B14FF0805277
:105610002B4B1A60BFF34F8FBFF36F8F01F084FEE7
:10562000012004B0BDE8F08704F1240001F042F845
:105630000028F3D0EAE701F055FE94F845506DB22A
:10564000002D11DD04F1240604E06B1E13F0FF0FA2
:105650005DB209D0636A3BB1304601F02BF80028F7
:10566000F3D001F005F9F0E7FF2384F8453001F0AD
:105670005BFE01F037FE94F844506DB2002D11DD51
:1056800004F1100604E06B1E13F0FF0F5DB209D0A9
:1056900023693BB1304601F00DF80028F3D001F04A
:1056A000E7F8F0E7FF2384F8443001F03DFE00F016
:1056B00073FE0020B5E701F037FE2846B1E700BFD2
:1056C00004ED00E02DE9F843002835D089469046E6
:1056D0001F46044621B3022F0BD1E36B012B08D0E8
:1056E0004FF0500383F31188BFF36F8FBFF34F8FD9
:1056F000FEE701F0F5FEEFF311864FF0500383F360
:105700001188BFF36F8FBFF34F8FA26BE36B9A4289
:105710001BD3022F19D0002086F31188BDE8F8832F
:10572000036C002BD7D04FF0500383F31188BFF3E5
:105730006F8FBFF34F8FFEE74FF0500383F3118855
:10574000BFF36F8FBFF34F8FFEE794F845503A4693
:10575000494620466DB2FFF72FFD6B1C08D06B1C2D
:105760005BB284F84530012086F31188BDE8F883E8
:10577000636A002BF7D004F1240000F09BFF00289F
:10578000F1D0B8F1000FEED00120C8F80000C3E757
:105790002DE9F04385B00192002800F0F5800E4617
:1057A0000446002900F08A8001F068F8002879D0CA
:1057B00001F098FDA56B002D40F04881019B002B66
:1057C00000F0DC8002A800F0FFFFDFF8CC8204F1DB
:1057D000240701F0A9FD00F093FC01F083FD94F88B
:1057E0004430FF2B04BF002384F8443094F8453044
:1057F000FF2B04BF002384F8453001F095FD01A97B
:1058000002A800F0EDFF002865D101F06BFDA36B4D
:10581000002B00F0C28001F087FD01F063FD94F8D9
:1058200045506DB2002D05DC12E06B1E13F0FF0F2A
:105830005DB20DD0636A5BB1384600F03BFF0028D3
:10584000F3D001F015F86B1E13F0FF0F5DB2F1D12C
:10585000FF2384F8453001F067FD01F043FD94F823
:1058600044506DB2002D15DD04F1100904E06B1EEB
:1058700013F0FF0F5DB20DD023695BB1484600F015
:1058800019FF0028F3D000F0F3FF6B1E13F0FF0F99
:105890005DB2F1D1FF2384F8443001F045FD00F002
:1058A0007BFD62E0019B002B82D04FF0500383F31D
:1058B0001188BFF36F8FBFF34F8FFEE7036C002B90
:1058C0003FF472AF4FF0500383F31188BFF36F8F33
:1058D000BFF34F8FFEE701F005FD94F845506DB220
:1058E000002D05DC12E06B1E13F0FF0F5DB20DD032
:1058F000636A5BB1384600F0DDFE0028F3D000F0AB
:10590000B7FF6B1E13F0FF0F5DB2F1D1FF2384F8D8
:10591000453001F009FD01F0E5FC94F844506DB20A
:10592000002D15DD04F1100904E06B1E13F0FF0FCC
:105930005DB20DD023695BB1484600F0BBFE002884
:10594000F3D000F095FF6B1E13F0FF0F5DB2F1D1A5
:10595000FF2384F8443001F0E7FC00F01DFD01F066
:10596000C1FCA36B53B101F0DFFC01F0BBFCA56BE4
:10597000002D6BD1019B002B7FF42BAF01F0D4FCE9
:10598000002005B0BDE8F0834FF0500383F3118889
:10599000BFF36F8FBFF34F8FFEE701F0C5FC3846B2
:1059A000019900F0A1FD01F09DFC94F845506DB205
:1059B000002D05DC12E06B1E13F0FF0F5DB20DD061
:1059C000636A5BB1384600F075FE0028F3D000F042
:1059D0004FFF6B1E13F0FF0F5DB2F1D1FF2384F870
:1059E000453001F0A1FC01F07DFC94F844506DB20B
:1059F000002D15DD04F1100904E06B1E13F0FF0FFC
:105A00005DB20DD023695BB1484600F053FE00281B
:105A1000F3D000F02DFF6B1E13F0FF0F5DB2F1D13C
:105A2000FF2384F8443001F07FFC00F0B5FC00282F
:105A30009BD14FF08053C8F80030BFF34F8FBFF3B6
:105A40006F8F01F04FFCA56B002D93D0226C5AB1E3
:105A5000E168636811449942E16028BF21683046DB
:105A600028BFE16002F0A2F8013DA56323691BB9DC
:105A700001F05AFC012084E704F1100000F01AFE46
:105A80000028F5D04FF08052034B1A60BFF34F8FC0
:105A9000BFF36F8FECE700BF04ED00E02DE9F843A2
:105AA00010B389469046044691B101F019FDEFF319
:105AB00011874FF0500383F31188BFF36F8FBFF34B
:105AC0004F8FA56BCDB9284687F31188BDE8F883C1
:105AD000036C002BE9D04FF0500383F31188BFF320
